:100000000A308A004B2A00000A108A100A1182075F
:10001000013402340334043405340634073408341C
:100020000934003494138C11730893000230941B2C
:1000300020288C1D192800308316111B01308312D3
:10004000F8000800141383169115911925287718C4
:100050009112771C91161116111A2C28831213086D
:10006000F80008008316111411183428D030F3005A
:10007000831212207108F300122083169114911834
:100080003F28D130F30083121220F7012220780894
:10009000F2008316111511194B287208F80083120B
:1000A0000800F10132207808EE00EE13EF016E082F
:1000B000F0008316111411185B28D030F30083125E
:1000C00012206F08F30012207008F300122083162C
:1000D00011151119692883128A150A128E2A83169E
:1000E000111411187128D030F30083121220073038
:1000F000F30012206E08F300122083161115111957
:100100007F2883128A150A12932AF701F8017408CE
:1001100003107518F707F70CF80CF518F707F70C2C
:10012000F80C7519F707F70CF80CF519F707F70C29
:10013000F80C751AF707F70CF80CF51AF707F70C17
:10014000F80C751BF707F70CF80CF51BF707F70C05
:10015000F80C08006E0EF7000F30F7057708F00076
:10016000F4000A30F50085207808EF006E080F399A
:100170007807F8000800831611141118BD28D03034
:10018000F30083121220F3011220831691149118A8
:10019000C728D130F300831212200130F70022204B
:1001A00078087F39A1000130F70022207808A200EA
:1001B0000130F70022207808A3000130F700222048
:1001C0007808A4000130F70022207808A50001304B
:1001D000F70022207808A600F70122207808A7005F
:1001E000831611151119F22883122108EE00AA2096
:1001F0007808A1002208EE00AA207808A2002308AF
:10020000EE00AA207808A3002508EE00AA207808AE
:10021000A5002608EE00AA207808A6002708EE0010
:10022000AA207808A7002130F8000030F9008A15CC
:100230000A12AB2A8E30F7007108F8007008F90036
:10024000FA01F808031D2E297908F800F901083091
:10025000F702F808031D2E29F70136290310F81BB1
:100260003529F90DF80DF7032E29F8138A150A120E
:10027000F52A70080319B8298316A0007B08031D0E
:1002800043298312B829A007031851297F30A002FF
:1002900003184C298312B829031D50298312B82949
:1002A00057298130A007031C57298312B829200839
:1002B000F700F801F901FA017108A400A417720807
:1002C000A3007308A2001830A000A101221C8029FD
:1002D0007E08FA07031C7229F90A031D7229F80A1D
:1002E0000319A1177D08F907031C7929F80A0319D6
:1002F000A1177C08F200F2177208F8070318A1177B
:10030000A10DF80CF90CFA0CA40CA30CA20C031010
:10031000A00B65290130F707031C90298312B82927
:10032000F81B9A29A40DFA0DF90DF80DF70B9A296F
:100330008312B829A41FAD29FA0A031DAD29F90AB1
:10034000031DAD29F80A031DAD29F80CF90CFA0CB0
:10035000F70A031DAD298312B8297108A1007C0892
:10036000A106A11FB529F817BD29F813BD298312CD
:10037000F701F801F901FA01831683128A150A12AE
:10038000072B72080319932A8316A4007B08031D08
:10039000CB298312932AA402031CD5297F30A407FA
:1003A000031CD4298312932ADF298130A402031865
:1003B000DB298312932A031DDF298312932A240841
:1003C000F700F801F901FA01A3017308A200A217CE
:1003D0007408A1007508A0001930A4007E08A002CE
:1003E0000318022A0130A1020318022AA2020318EC
:1003F000022AA3020318022AA30AA20AA10A7E085B
:10040000A007342A7D08A10203181D2A0130A20288
:1004100003181D2AA30203181D2AA30AA20A7D0895
:10042000A1077E08A007031C342AA10A031D342A51
:10043000A20A031D342AA30A342A7C088038A202A7
:100440000318332A0130A3020318332AA30A7C08B5
:100450008038A2077D08A107031C112AA20A031DE8
:10046000112AA30A112A7A14A40B372A422A03104C
:10047000A00DA10DA20DA30D0310FA0DF90DF80D9D
:10048000A50DEE29251C4A2A0310F80CF90CFA0CCC
:10049000A50C4E2AF70B4E2A8312932AA51B772A06
:1004A0000310A00DA10DA20DA30D7E08A00203183C
:1004B000632A0130A1020318632AA2020318632AE7
:1004C000A302031C882A7D08A10203186E2A0130AA
:1004D000A20203186E2AA302031C882A7C08803813
:1004E000A2020318772A0130A302031C882AFA0A01
:1004F000031D882AF90A031D882AF80A031D882A81
:10050000F70A031D852A8312932AF80CF90CFA0CBA
:100510007308A4007C08A406A41F902AF817982A40
:10052000F813982A8312F701F801F901FA018316EA
:1005300083128A150A12202B8E30F7006E08F702FC
:100540006F08F9007008F800F917F7080319B32AC3
:100550000310F908031DAF2AF8080319B32AF90C90
:10056000F80CF70BA82AEF1FBA2AF809F909F80ABC
:100570000319F90A8A150A123B2BF801F901F70150
:10058000FA017308031DC72A72080319E12A103003
:10059000F4000310F00DF10DF70DFA0D73087A0257
:1005A000031DD42A72087702031CDD2A7208F702A1
:1005B000031CFA037308FA020314F80DF90DF40B87
:1005C000C92A0800AB012B08073C031C0D2B2B0884
:1005D000073CF8006E08F700F8080319F32A031027
:1005E000F70CF80BEF2A77080139031DF92A0710D9
:1005F000FA2A071420102008831687008312A010FF
:1006000020088316870083128714A0102008831601
:10061000870083128710AB0AE32AAB012B08073C43
:10062000031C382B2B08073CF8006F08F700F8086C
:1006300003191E2B0310F70CF80B1A2B770801393E
:10064000031D242B0710252B0714201020088316C8
:1006500087008312A0102008831687008312871456
:10066000A01020088316870083128710AB0A0E2B78
:1006700020112008831687008312071520112008F7
:10068000831687008312071108006E3084008313DD
:1006900000080319582B0630F800F701F70B4E2B12
:1006A000F80B4D2B7B30F700F70B542B800B4B2BAB
:1006B0000800710873068039F500F11F642BF009FA
:1006C000F109F00A0319F10AF31F6B2BF209F30980
:1006D000F20A0319F30AF801F901F701FA017308A4
:1006E000031D752B720803198F2B1030F4000310B3
:1006F000F00DF10DF70DFA0D73087A02031D822B30
:1007000072087702031C8B2B7208F702031CFA0392
:100710007308FA020314F80DF90DF40B772BF51F8B
:10072000962BF809F909F80A0319F90A08003108A3
:10073000F1003008F000F3010A30F200BD22790820
:10074000EF007808EE007908F1007808F000F30176
:100750000A30F200BD2264307707840083137A18D0
:1007600083170008F0008316860170088312860044
:100770000130E2006308EE006208EF00E22201307F
:10078000EE004523E2016308EE006208EF00E2227A
:100790003108F1003008F000F3010A30F200BD2208
:1007A00064307707840083137A1883170008F000F9
:1007B000831686017008831286000230E200630807
:1007C000EE006208EF00E2220130EE004523E20174
:1007D0006308EE006208EF00E2223308F1003208FD
:1007E000F000F3010A30F200BD227908EF0078082A
:1007F000EE007908F1007808F000F3010A30F20009
:10080000BD2264307707840083137A1883170008A9
:10081000F000831686017008831286000430E2001F
:100820006308EE006208EF00E2220130EE0045238B
:10083000E2016308EE006208EF00E2223308F100F3
:100840003208F000F3010A30F200BD22643077076D
:10085000840083137A1883170008F000831686013A
:100860007008831286000830E2006308EE00620818
:10087000EF00E2220130EE004523E2016308EE00C2
:100880006208EF00E2223508F1003408F000F301BD
:100890000A30F200BD227908EF007808EE007908EE
:1008A000F1007808F000F3010A30F200BD22643054
:1008B0007707840083137A1883170008F0008316E3
:1008C00086017008831286001030E2006308EE0093
:1008D0006208EF00E2220130EE004523E2016308E6
:1008E000EE006208EF00E2223508F1003408F00063
:1008F000F3010A30F200BD226430770784008313CD
:100900007A1883170008F000831686017008831296
:1009100086002030E2006308EE006208EF00E22269
:100920000130EE004523E2016308EE006208EF00AB
:10093000E2222F08F1002E08F000F3010A30F20045
:1009400059237908EF007808EE007908F10078085B
:10095000F000F3010A30F200592364307707840075
:1009600083137A1883170008F00083168601700835
:10097000831286004030E2006308EE006208EF0058
:10098000E2220130EE004523E2016308EE00620836
:10099000EF00E2222F08F1002E08F000F3010A30E8
:1009A000F200592364307707840083137A18831781
:1009B0000008F000831686017008831286008030DC
:1009C000E2006308EE006208EF00E2220130EE0070
:1009D0004523E2016308EE006208EF00E22283167D
:1009E00086018312660886000130E3006308EE008A
:1009F0006208EF00E2220130EE004523E3016308C4
:100A0000EE006208EF00E22283168601831264087A
:100A100086000230E3006308EE006208EF00E22285
:100A20000130EE004523E3016308EE006208EF00A9
:100A3000E2223B08F1003A08F000F3010A30F2002C
:100A4000BD227908EF007808EE007908F1007808F7
:100A5000F000F3010A30F200BD2264307707840011
:100A600083137A1883170008F00083168601700834
:100A7000831286000430E3006308EE006208EF0092
:100A8000E2220130EE004523E3016308EE00620834
:100A9000EF00E2223B08F1003A08F000F3010A30CF
:100AA000F200BD2264307707840083137A1883171D
:100AB0000008F00083168601700883128600083053
:100AC000E3006308EE006208EF00E2220130EE006E
:100AD0004523E3016308EE006208EF00E2223908D3
:100AE000F1003808F000F3010A30F200BD22790865
:100AF000EF007808EE007908F1007808F000F301C3
:100B00000A30F200BD2264307707840083137A181C
:100B100083170008F0008316860170088312860090
:100B20001030E3006308EE006208EF00E2220130BB
:100B3000EE004523E3016308EE006208EF00E222C5
:100B40003908F1003808F000F3010A30F200BD2244
:100B500064307707840083137A1883170008F00045
:100B6000831686017008831286002030E300630834
:100B7000EE006208EF00E2220130EE004523E301BF
:100B80006308EE006208EF00E2223708F100360841
:100B9000F000F3010A30F200BD227908EF00780876
:100BA000EE007908F1007808F000F3010A30F20055
:100BB000BD2264307707840083137A1883170008F6
:100BC000F000831686017008831286004030E3002F
:100BD0006308EE006208EF00E2220130EE004523D8
:100BE000E3016308EE006208EF00E2223708F1003B
:100BF0003608F000F3010A30F200BD2264307707B6
:100C0000840083137A1883170008F0008316860186
:100C10007008831286008030E3006308EE006208EB
:100C2000EF00E2220130EE004523E3016308EE000D
:100C30006208EF00E2228A150A12422BFF30EF0011
:100C4000FE30F000FD30F100FB30F200F730F30031
:100C5000EE016E08033C031C642E70306E078400A6
:100C600083130008F4008316880174088312880037
:100C7000831608168312081A462E6E08F4000330F5
:100C8000F500852001307807EF00382E831688168E
:100C90008312881A542E6E08F4000330F500852064
:100CA00002307807EF00462E831608178312081BC0
:100CB000622E6E08F4000330F500852003307807BB
:100CC000EF00542EEE0A292E6F08F80008001030AD
:100CD000F200F701FA01EF0CEE0C031C752E700800
:100CE000F7070318FA0A7108FA07FA0CF70CF90C5F
:100CF000F80CF20B6B2E08007B08F8017602031843
:100D0000842E7608F700902EF7010830FC00F60DCF
:100D1000F70D7B0877020318F700F80DFC0B872E00
:100D200008007408F6000A30FB007C26780EF500F7
:100D3000F030F5057408F6000A30FB007C267708D1
:100D40007507F8000800F10132207808F00004303F
:100D50006E07F8006F08FA000318FA0A7808F10025
:100D60007A08F20004306E07840083136F1883172B
:100D70000008F300F40091267108840083137218B0
:100D800083177808800005306E07F8006F08FA00B6
:100D90000318FA0A7808F1007A08F20005306E07A5
:100DA000840083136F1883170008F300F400912662
:100DB0007108840083137218831778088000063046
:100DC0006E07F8006F08FA000318FA0A7808F100B5
:100DD0007A08F20006306E07840083136F188317B9
:100DE0000008F300F4009126710884008313721840
:100DF00083177808800002306E07F8006F08FA0049
:100E00000318FA0A7808F1007A08F20002306E0737
:100E1000840083136F1883170008F300F4009126F1
:100E200071088400831372188317780880000130DA
:100E30006E07F8006F08FA000318FA0A7808F10044
:100E40007A08F20001306E07840083136F1883174D
:100E50000008F300F40091267108840083137218CF
:100E60008317780880006E08F8006F08FA006E0893
:100E7000F1006F08F2006E08840083136F18831767
:100E80000008F300F400912671088400831372189F
:100E9000831778088000F01F552F6E088400831395
:100EA0006F188317000880388000831611141118FA
:100EB000572FD030F30083121220F30112206E0856
:100EC000840083136F1883170008F100F3001220C9
:100ED00001306E07840083136F1883170008F10038
:100EE000F300122002306E07840083136F188317FB
:100EF0000008F100F300122003306E078400831312
:100F00006F1883170008F100F300122004306E07F9
:100F1000840083136F1883170008F100F300122078
:100F200005306E07840083136F1883170008F100E3
:100F3000F300122006306E07840083136F188317A6
:100F40000008F100F3001220831611151119A62FC5
:080F500083128A150A12E92F31
:101000006430560784008313571883170008EE00D6
:101010008316860183126E0886000130E2006308A1
:10102000EE006208EF008A11E2228A150130EE001C
:101030008A1145238A15E2016308EE006208EF0079
:101040008A11E2228A1564305807840083135918E4
:1010500083170008EE008316860183126E0886004F
:101060000230E2006308EE006208EF008A11E2221B
:101070008A150130EE008A1145238A15E2016308C2
:10108000EE006208EF008A11E2228A1564305A07E6
:10109000840083135B1883170008EE008316860113
:1010A00083126E0886000430E2006308EE006208D6
:1010B000EF008A11E2228A150130EE008A114523E1
:1010C0008A15E2016308EE006208EF008A11E2224D
:1010D0008A1564305C07840083135D188317000849
:1010E000EE008316860183126E0886000830E20047
:1010F0006308EE006208EF008A11E2228A150130CF
:10110000EE008A1145238A15E2016308EE006208A9
:10111000EF008A11E2228A1564305E07840083138F
:101120005F1883170008EE008316860183126E088D
:1011300086001030E2006308EE006208EF008A11BA
:10114000E2228A150130EE008A1145238A15E20158
:101150006308EE006208EF008A11E2228A1564300B
:10116000600784008313611883170008EE0083165C
:10117000860183126E0886002030E2006308EE00CC
:101180006208EF008A11E2228A150130EE008A110E
:1011900045238A15E2016308EE006208EF008A1118
:1011A000E2228A152F08F1002E08F000F3010A3020
:1011B000F2008A1159238A157908EF007808EE00A9
:1011C0006F08F1006E08F000F3010A30F2008A1196
:1011D00059238A157708EE007A08EF0064306E070D
:1011E000840083136F1883170008F00083168601AC
:1011F0007008831286004030E2006308EE00620847
:10120000EF008A11E2228A150130EE008A1145238F
:101210008A15E2016308EE006208EF008A11E222FB
:101220008A152F08F1002E08F000F3010A30F200B1
:101230008A1159238A157708EE007A08EF00643086
:101240006E07840083136F1883170008F00083165D
:1012500086017008831286008030E2006308EE0089
:101260006208EF008A11E2228A150130EE008A112D
:1012700045238A15E2016308EE006208EF008A1137
:10128000E2228A15831686018312660886000130E1
:10129000E3006308EE006208EF008A11E2228A157B
:1012A0000130EE008A1145238A15E3016308EE0040
:1012B0006208EF008A11E2228A15831686018312E2
:1012C000640886000230E3006308EE006208EF0065
:1012D0008A11E2228A150130EE008A1145238A150F
:1012E000E3016308EE006208EF008A11E2228A152A
:1012F00064304A07840083134B1883170008EE00FC
:101300008316860183126E0886000430E3006308AA
:10131000EE006208EF008A11E2228A150130EE0029
:101320008A1145238A15E3016308EE006208EF0085
:101330008A11E2228A1564304C07840083134D1809
:1013400083170008EE008316860183126E0886005C
:101350000830E3006308EE006208EF008A11E22221
:101360008A150130EE008A1145238A15E3016308CE
:10137000EE006208EF008A11E2228A1564304E07FF
:10138000840083134F1883170008EE00831686012C
:1013900083126E0886001030E3006308EE006208D6
:1013A000EF008A11E2228A150130EE008A114523EE
:1013B0008A15E3016308EE006208EF008A11E22259
:1013C0008A1564305007840083135118831700086E
:1013D000EE008316860183126E0886002030E3003B
:1013E0006308EE006208EF008A11E2228A150130DC
:1013F000EE008A1145238A15E3016308EE006208B6
:10140000EF008A11E2228A156430520784008313A8
:10141000531883170008EE008316860183126E08A6
:1014200086004030E3006308EE006208EF008A1196
:10143000E2228A150130EE008A1145238A15E30164
:101440006308EE006208EF008A11E2228A15643018
:10145000540784008313551883170008EE00831681
:10146000860183126E0886008030E3006308EE0078
:101470006208EF008A11E2228A150130EE008A111B
:1014800045238A15E3016308EE006208EF008A1124
:10149000E2228A15080003081F398300FF30A000EC
:1014A000A0152008831687008312201620088316B3
:1014B00087003130930028308312940083169417EC
:1014C00014138312E201E30183161F149F141F15E6
:1014D0009F1107309C008313C0308312E400F93061
:1014E000E500A430E600B030E7009930E800923023
:1014F000E9008230EA00F830EB008030EC009030F8
:10150000ED001830831687008312A0000030831688
:101510008600F03088008A11831251288A15103015
:10152000EE008A116F288A1583161F1383121F1766
:101530009F1783169F1783121F1483161F109F1463
:101540001F159F150030F80083121F08C739780453
:101550009F008A11BB288A157908A9007808A8007D
:10156000023028078400831329188317B10100086B
:10157000B000013028078400831329188317B301B2
:101580000008B20028088400831329188317B501C6
:101590000008B40004302807840083132918831737
:1015A000B7010008B6000530280784008313291806
:1015B0008317B9010008B800063028078400831398
:1015C00029188317BB010008BA001F151F19E62A46
:1015D0001E08FA0083161E088312EE001E08EF0094
:1015E000F1006E08F0008A111A298A157A08F300B2
:1015F0007908F2007808F1007708F0006630FE0004
:10160000FD001C30FC008130FB008A1139298A154D
:101610007A08F1007908F0007808EF007708EE000A
:101620007108F5007008F4006F08F3006E08F2000E
:10163000FE01FD012030FC008230FB008A11C1292F
:101640008A157A08F1007908F0007808EF00770829
:10165000EE00F7006F08F8007008F9007108FA0052
:10166000F8137108F1007008F0007808EF007708AF
:10167000EE008A119C2A8A157908AF007808AE001E
:101680008A11972B8A158A111E268A157808AA00B6
:101690002A0F4B2BF12F2A080C3C031DF12FCB01F5
:1016A000CA01CD01CC01CF01CE01D1010130D00062
:1016B000D301D201D501D400D701D601D901D80177
:1016C000DB01DA01DD01DC01DF01DE01E101E00126
:1016D000AC00AD002C0B922B2D0B922B00208A110D
:1016E0001E268A157808AA002A08003C0318872BB2
:1016F0002A080A3C031C872B01302A028A11042085
:101700008A15F800FA017808CA007A08CB002A087E
:101710000C3C0319AD012A080B3C031D912BAD01B4
:10172000AC016C2B0130AD002C0BD42B2D0BD42B2A
:1017300000208A111E268A157808AA002A08003C73
:101740000318B12B2A080A3C031CB12B01302A02D2
:101750008A1104208A15F800FA017808CC007A086A
:10176000CD002A080C3C031DCD2BAD014B08EF002A
:101770004A08EE00F1010A30F0008A1167268A1546
:101780007908EF007808EE004C086E07C6006F0875
:10179000C7004D0803184D0FC7072A080B3C031D4F
:1017A000D32BAD01AC01962B0130AD002C0B082CD6
:1017B0002D0B082C00208A111E268A157808AA00F5
:1017C0002A0BE32BE72B2A080A3C031DFD2B0130D3
:1017D0002A028A1104208A15F800FA017808CE003E
:1017E0007A08CF004E0BFA2BCF08031DFA2BD1013C
:1017F000D001FD2BD1010130D0002A080C3C031987
:10180000AD012A080B3C031D072CAD01AC01D82B00
:101810000130AD002C0B6B2C2D0B6B2C00208A1192
:101820001E268A157808AA004E0B2F2CCF08031D00
:101830002F2C2A0B1C2C242C2A08023C0319242CA4
:101840002A080A3C031D2F2C01302A028A11042089
:101850008A15F800FA017808D0007A08D100CE087D
:10186000031D482CCF08031D482C2A08003C0318F0
:10187000482C2A08093C031C482C01302A028A11F2
:1018800004208A15F800FA017808D0007A08D100FF
:101890002A080C3C031D642CAD014F08EF004E08D4
:1018A000EE00F1010A30F0008A1167268A157908E6
:1018B000EF007808EE0050086E07C4006F08C500FE
:1018C00051080318510FC5072A080B3C031D6A2C49
:1018D000AD01AC010C2C0130AD002C0BBA2C2D0B42
:1018E000BA2C00208A111E268A157808AA004408FE
:1018F000023C031D952CC508031D952C2A0B812C39
:10190000892C2A08023C0319892C2A080A3C031D49
:10191000942C01302A028A1104208A15F800FA0159
:101920007808D2007A08D300AF2C2A0B982CA42C6C
:101930002A08023C0319A42C2A08033C0319A42CEE
:101940002A080A3C031DAF2C01302A028A11042008
:101950008A15F800FA017808D2007A08D3002A081C
:101960000C3C0319AD012A080B3C031DB92CAD0139
:10197000AC016F2C0130AD00D0304607C8004708DD
:10198000C900073003180830C9072C0B622E2D0B35
:10199000622E00208A111E268A157808AA00440BA0
:1019A000D42CC5080319FE2C4408033C031DDB2C72
:1019B000C5080319FE2C4408053C031DE22CC5088C
:1019C0000319FE2C4408073C031DE92CC508031924
:1019D000FE2C4408083C031DF02CC5080319FE2CFE
:1019E00044080A3C031DF72CC5080319FE2C4408C3
:1019F0000C3C031D4F2DC508031D4F2D5208033C01
:101A0000031D172DD308031D172D2A0B082D0C2D90
:101A10002A080A3C031D172D01302A028A110420CE
:101A20008A15F800FA017808D4007A08D500520B1C
:101A30001C2DD3080319232D5208023C031D362DFB
:101A4000D308031D362D2A08003C0318362D2A081A
:101A50000A3C031C362D01302A028A1104208A1503
:101A6000F800FA017808D4007A08D500D208031DDE
:101A70004F2DD308031D4F2D2A08003C03184F2D6E
:101A80002A08093C031C4F2D01302A028A11042028
:101A90008A15F800FA017808D4007A08D5004408BD
:101AA000043C031D562DC50803196B2D4408063C44
:101AB000031D5D2DC50803196B2D4408093C031D4A
:101AC000642DC50803196B2D44080B3C031DAC2D78
:101AD000C508031DAC2D5208033C031D742DD3080B
:101AE000031D742DD501D401520B792DD308031990
:101AF000802D5208023C031D932DD308031D932D06
:101B00002A08003C0318932D2A080A3C031C932D35
:101B100001302A028A1104208A15F800FA01780897
:101B2000D4007A08D500D208031DAC2DD308031DBC
:101B3000AC2D2A08003C0318AC2D2A08093C031CD4
:101B4000AC2D01302A028A1104208A15F800FA010E
:101B50007808D4007A08D5004408023C031D3F2EC3
:101B6000C508031D3F2ED208031DCC2DD308031D2D
:101B7000CC2D2A08003C031CC12D2A08093C031C5B
:101B8000CC2D01302A028A1104208A15F800FA01AE
:101B90007808D4007A08D500520BE42DD308031D31
:101BA000E42D2A08003C0318E42D2A080A3C031CF3
:101BB000E42D01302A028A1104208A15F800FA0166
:101BC0007808D4007A08D5005208023C031D3F2E45
:101BD000D308031D3F2E4908F1004808F000F30127
:101BE0006430F2008A11BD228A157708EE007A0867
:101BF000EF00EE08031DFF2DEF0803191D2E480806
:101C00000339EE00EF01EE08031D1D2EEF08031D42
:101C10001D2E2A08003C03181C2E2A080A3C031C0F
:101C20001C2E01302A028A1104208A15F800FA01BC
:101C30007808D4007A08D5003F2E2A08003C031803
:101C4000302E2A08083C031C302E01302A028A114B
:101C500004208A15F800FA017808D4007A08D50023
:101C60002A080A3C031D3F2E01302A028A11042053
:101C70008A15F800FA017808D4007A08D5002A08F5
:101C80000C3C031D5B2EAD015308EF005208EE0023
:101C9000F1010A30F0008A1167268A157908EF00F1
:101CA0007808EE0054086E07C2006F08C30055089C
:101CB0000318550FC3072A080B3C031D612EAD0105
:101CC000AC01C72C0130AD002C0B8F2E2D0B8F2EAD
:101CD00000208A111E268A157808AA002A0B712E68
:101CE000792E2A08023C0319792E2A080A3C031D82
:101CF000842E01302A028A1104208A15F800FA0184
:101D00007808D6007A08D7002A080C3C0319AD01E0
:101D10002A080B3C031D8E2EAD01AC01662E01304E
:101D2000AD002C0BF32E2D0BF32E00208A111E2656
:101D30008A157808AA005608023C031DBD2ED70854
:101D4000031DBD2E2A0BA52EB12E2A08023C031915
:101D5000B12E2A08033C0319B12E2A080A3C031DA0
:101D6000BC2E01302A028A1104208A15F800FA01DB
:101D70007808D8007A08D900D02E2A08003C031829
:101D8000D02E2A080A3C031CD02E01302A028A11C8
:101D900004208A15F800FA017808D8007A08D900DA
:101DA0002A080C3C031DEC2EAD015708EF00560825
:101DB000EE00F1010A30F0008A1167268A157908D1
:101DC000EF007808EE0058086E07BC006F08BD00F1
:101DD00059080318590FBD072A080B3C031DF22EA2
:101DE000AD01AC01932E0130AD002C0B192F2D0B42
:101DF000192F00208A111E268A157808AA002A08A1
:101E0000053C031C0E2F01302A028A1104208A157A
:101E1000F800FA017808DA007A08DB002A080C3C9E
:101E20000319AD012A080B3C031D182FAD01AC01AD
:101E3000F72E0130AD002C0B572F2D0B572F002004
:101E40008A111E268A157808AA002A080A3C031C53
:101E5000342F01302A028A1104208A15F800FA0171
:101E60007808DC007A08DD002A080C3C031D502F9E
:101E7000AD015B08EF005A08EE00F1010A30F000F6
:101E80008A1167268A157908EF007808EE005C0849
:101E90006E07BE006F08BF005D0803185D0FBF0727
:101EA0002A080B3C031D562FAD01AC011D2F01303C
:101EB000AD002C0B7D2F2D0B7D2F00208A111E26AF
:101EC0008A157808AA002A08053C031C722F0130E5
:101ED0002A028A1104208A15F800FA017808DE0027
:101EE0007A08DF002A080C3C0319AD012A080B3CD4
:101EF000031D7C2FAD01AC015B2F0130AD002C0B1D
:101F0000F12F2D0BF12F00208A111E268A1578083B
:101F1000AA002A080A3C031C982F01302A028A11C1
:101F200004208A15F800FA017808E0007A08E10038
:101F30002A080C3C031DEA2FAD015F08EF005E0884
:101F4000EE00F1010A30F0008A1167268A1579083F
:101F5000EF007808EE0060086E07C0006F08C1004F
:101F600061080318610FC10702302807840083133A
:101F7000291883173C088000013028078400831348
:101F8000291883173E088000280884008313291825
:101F9000831740088000063028078400831329181F
:101FA000831746088000053028078400831329180A
:101FB00083174408800004302807840083132918FD
:101FC0008317420880002908EF002808EE008A11D4
:101FD000A32E8A152A080B3C031DF02FAD01AC017E
:061FE000812FA92A630015
:02400E00723FFF
:00000001FF
;PIC16F877A
;CRC=D3D4  CREATED="20-Mar-26 14:27"
